{
  "_format": "hh-sol-artifact-1",
  "contractName": "GovernorContract",
  "sourceName": "contracts/GovernorContract.sol",
  "abi": [
    {
      "inputs": [
        {
          "internalType": "address",
          "name": "_token",
          "type": "address"
        },
        {
          "internalType": "address",
          "name": "bridgeContract",
          "type": "address"
        }
      ],
      "stateMutability": "nonpayable",
      "type": "constructor"
    },
    {
      "anonymous": false,
      "inputs": [
        {
          "indexed": true,
          "internalType": "address",
          "name": "previousOwner",
          "type": "address"
        },
        {
          "indexed": true,
          "internalType": "address",
          "name": "newOwner",
          "type": "address"
        }
      ],
      "name": "OwnershipTransferred",
      "type": "event"
    },
    {
      "anonymous": false,
      "inputs": [
        {
          "indexed": false,
          "internalType": "bytes32",
          "name": "proposalId",
          "type": "bytes32"
        },
        {
          "indexed": false,
          "internalType": "address",
          "name": "proposer",
          "type": "address"
        },
        {
          "indexed": false,
          "internalType": "address[]",
          "name": "targets",
          "type": "address[]"
        },
        {
          "indexed": false,
          "internalType": "uint256[]",
          "name": "values",
          "type": "uint256[]"
        },
        {
          "indexed": false,
          "internalType": "bytes[]",
          "name": "calldatas",
          "type": "bytes[]"
        },
        {
          "indexed": false,
          "internalType": "uint256",
          "name": "voteStart",
          "type": "uint256"
        },
        {
          "indexed": false,
          "internalType": "uint256",
          "name": "voteEnd",
          "type": "uint256"
        },
        {
          "indexed": false,
          "internalType": "string",
          "name": "description",
          "type": "string"
        },
        {
          "indexed": false,
          "internalType": "bytes32",
          "name": "descriptionHash",
          "type": "bytes32"
        }
      ],
      "name": "ProposalCreated",
      "type": "event"
    },
    {
      "anonymous": false,
      "inputs": [
        {
          "indexed": false,
          "internalType": "bytes32",
          "name": "proposalId",
          "type": "bytes32"
        }
      ],
      "name": "ProposalExecuted",
      "type": "event"
    },
    {
      "anonymous": false,
      "inputs": [
        {
          "indexed": true,
          "internalType": "bytes32",
          "name": "proposalId",
          "type": "bytes32"
        },
        {
          "indexed": false,
          "internalType": "bytes32",
          "name": "voteMerkleRoot",
          "type": "bytes32"
        },
        {
          "indexed": false,
          "internalType": "uint256",
          "name": "forVotes",
          "type": "uint256"
        },
        {
          "indexed": false,
          "internalType": "uint256",
          "name": "againstVotes",
          "type": "uint256"
        },
        {
          "indexed": false,
          "internalType": "uint256",
          "name": "abstainVotes",
          "type": "uint256"
        },
        {
          "indexed": false,
          "internalType": "string",
          "name": "data",
          "type": "string"
        }
      ],
      "name": "ProposalUpdated",
      "type": "event"
    },
    {
      "anonymous": false,
      "inputs": [
        {
          "indexed": false,
          "internalType": "bytes32",
          "name": "proposalId",
          "type": "bytes32"
        },
        {
          "indexed": false,
          "internalType": "uint256",
          "name": "bridgeId",
          "type": "uint256"
        }
      ],
      "name": "VoteResolutionRequested",
      "type": "event"
    },
    {
      "inputs": [],
      "name": "clock",
      "outputs": [
        {
          "internalType": "uint48",
          "name": "",
          "type": "uint48"
        }
      ],
      "stateMutability": "view",
      "type": "function"
    },
    {
      "inputs": [
        {
          "components": [
            {
              "internalType": "uint256",
              "name": "forVotes",
              "type": "uint256"
            },
            {
              "internalType": "uint256",
              "name": "againstVotes",
              "type": "uint256"
            },
            {
              "internalType": "uint256",
              "name": "abstainVotes",
              "type": "uint256"
            },
            {
              "internalType": "bytes32",
              "name": "voteMerkleRoot",
              "type": "bytes32"
            },
            {
              "internalType": "string",
              "name": "data",
              "type": "string"
            }
          ],
          "internalType": "struct GovernorContract.ResolutionResponse",
          "name": "resolution",
          "type": "tuple"
        }
      ],
      "name": "encodeResolution",
      "outputs": [
        {
          "internalType": "bytes",
          "name": "",
          "type": "bytes"
        }
      ],
      "stateMutability": "pure",
      "type": "function"
    },
    {
      "inputs": [
        {
          "internalType": "address[]",
          "name": "targets",
          "type": "address[]"
        },
        {
          "internalType": "uint256[]",
          "name": "values",
          "type": "uint256[]"
        },
        {
          "internalType": "bytes[]",
          "name": "calldatas",
          "type": "bytes[]"
        },
        {
          "internalType": "bytes32",
          "name": "descriptionHash",
          "type": "bytes32"
        }
      ],
      "name": "execute",
      "outputs": [
        {
          "internalType": "bytes32",
          "name": "",
          "type": "bytes32"
        }
      ],
      "stateMutability": "payable",
      "type": "function"
    },
    {
      "inputs": [],
      "name": "getLilypadFee",
      "outputs": [
        {
          "internalType": "uint256",
          "name": "",
          "type": "uint256"
        }
      ],
      "stateMutability": "view",
      "type": "function"
    },
    {
      "inputs": [
        {
          "internalType": "address[]",
          "name": "targets",
          "type": "address[]"
        },
        {
          "internalType": "uint256[]",
          "name": "values",
          "type": "uint256[]"
        },
        {
          "internalType": "bytes[]",
          "name": "calldatas",
          "type": "bytes[]"
        },
        {
          "internalType": "bytes32",
          "name": "descriptionHash",
          "type": "bytes32"
        }
      ],
      "name": "hashProposal",
      "outputs": [
        {
          "internalType": "bytes32",
          "name": "",
          "type": "bytes32"
        }
      ],
      "stateMutability": "pure",
      "type": "function"
    },
    {
      "inputs": [
        {
          "internalType": "string",
          "name": "_hexStr",
          "type": "string"
        }
      ],
      "name": "hexStrToBytes",
      "outputs": [
        {
          "internalType": "bytes",
          "name": "",
          "type": "bytes"
        }
      ],
      "stateMutability": "pure",
      "type": "function"
    },
    {
      "inputs": [
        {
          "internalType": "uint256",
          "name": "",
          "type": "uint256"
        }
      ],
      "name": "jobIdToProposal",
      "outputs": [
        {
          "internalType": "bytes32",
          "name": "",
          "type": "bytes32"
        }
      ],
      "stateMutability": "view",
      "type": "function"
    },
    {
      "inputs": [
        {
          "internalType": "address",
          "name": "_from",
          "type": "address"
        },
        {
          "internalType": "uint256",
          "name": "_jobId",
          "type": "uint256"
        },
        {
          "internalType": "string",
          "name": "_errorMsg",
          "type": "string"
        }
      ],
      "name": "lilypadCancelled",
      "outputs": [],
      "stateMutability": "nonpayable",
      "type": "function"
    },
    {
      "inputs": [
        {
          "internalType": "address",
          "name": "_from",
          "type": "address"
        },
        {
          "internalType": "uint256",
          "name": "_jobId",
          "type": "uint256"
        },
        {
          "internalType": "enum LilypadResultType",
          "name": "_resultType",
          "type": "uint8"
        },
        {
          "internalType": "string",
          "name": "_result",
          "type": "string"
        }
      ],
      "name": "lilypadFulfilled",
      "outputs": [],
      "stateMutability": "nonpayable",
      "type": "function"
    },
    {
      "inputs": [],
      "name": "owner",
      "outputs": [
        {
          "internalType": "address",
          "name": "",
          "type": "address"
        }
      ],
      "stateMutability": "view",
      "type": "function"
    },
    {
      "inputs": [
        {
          "internalType": "bytes32",
          "name": "proposalId",
          "type": "bytes32"
        }
      ],
      "name": "proposalDeadline",
      "outputs": [
        {
          "internalType": "uint256",
          "name": "",
          "type": "uint256"
        }
      ],
      "stateMutability": "view",
      "type": "function"
    },
    {
      "inputs": [
        {
          "internalType": "bytes32",
          "name": "proposalId",
          "type": "bytes32"
        }
      ],
      "name": "proposalSnapshot",
      "outputs": [
        {
          "internalType": "uint256",
          "name": "",
          "type": "uint256"
        }
      ],
      "stateMutability": "view",
      "type": "function"
    },
    {
      "inputs": [
        {
          "internalType": "bytes32",
          "name": "",
          "type": "bytes32"
        }
      ],
      "name": "proposals",
      "outputs": [
        {
          "internalType": "uint64",
          "name": "voteStart",
          "type": "uint64"
        },
        {
          "internalType": "address",
          "name": "proposer",
          "type": "address"
        },
        {
          "internalType": "uint64",
          "name": "voteEnd",
          "type": "uint64"
        },
        {
          "internalType": "bool",
          "name": "executed",
          "type": "bool"
        },
        {
          "internalType": "bool",
          "name": "canceled",
          "type": "bool"
        },
        {
          "internalType": "uint256",
          "name": "forVotes",
          "type": "uint256"
        },
        {
          "internalType": "uint256",
          "name": "againstVotes",
          "type": "uint256"
        },
        {
          "internalType": "uint256",
          "name": "abstainVotes",
          "type": "uint256"
        },
        {
          "internalType": "uint256",
          "name": "bridgeId",
          "type": "uint256"
        },
        {
          "internalType": "bytes32",
          "name": "voteMerkleRoot",
          "type": "bytes32"
        },
        {
          "internalType": "uint256",
          "name": "snapshotId",
          "type": "uint256"
        }
      ],
      "stateMutability": "view",
      "type": "function"
    },
    {
      "inputs": [
        {
          "internalType": "address[]",
          "name": "targets",
          "type": "address[]"
        },
        {
          "internalType": "uint256[]",
          "name": "values",
          "type": "uint256[]"
        },
        {
          "internalType": "bytes[]",
          "name": "calldatas",
          "type": "bytes[]"
        },
        {
          "internalType": "string",
          "name": "description",
          "type": "string"
        }
      ],
      "name": "propose",
      "outputs": [
        {
          "internalType": "bytes32",
          "name": "",
          "type": "bytes32"
        }
      ],
      "stateMutability": "nonpayable",
      "type": "function"
    },
    {
      "inputs": [],
      "name": "renounceOwnership",
      "outputs": [],
      "stateMutability": "nonpayable",
      "type": "function"
    },
    {
      "inputs": [
        {
          "internalType": "bytes32",
          "name": "proposalId",
          "type": "bytes32"
        }
      ],
      "name": "requestVoteResolution",
      "outputs": [],
      "stateMutability": "payable",
      "type": "function"
    },
    {
      "inputs": [
        {
          "internalType": "uint256",
          "name": "percentage",
          "type": "uint256"
        }
      ],
      "name": "setQuorumPercentage",
      "outputs": [],
      "stateMutability": "nonpayable",
      "type": "function"
    },
    {
      "inputs": [
        {
          "internalType": "uint256",
          "name": "period",
          "type": "uint256"
        }
      ],
      "name": "setVotingPeriod",
      "outputs": [],
      "stateMutability": "nonpayable",
      "type": "function"
    },
    {
      "inputs": [
        {
          "internalType": "bytes32",
          "name": "proposalId",
          "type": "bytes32"
        }
      ],
      "name": "state",
      "outputs": [
        {
          "internalType": "enum GovernorContract.ProposalState",
          "name": "",
          "type": "uint8"
        }
      ],
      "stateMutability": "view",
      "type": "function"
    },
    {
      "inputs": [],
      "name": "token",
      "outputs": [
        {
          "internalType": "contract DefiKicksDataGovernanceToken",
          "name": "",
          "type": "address"
        }
      ],
      "stateMutability": "view",
      "type": "function"
    },
    {
      "inputs": [
        {
          "internalType": "address",
          "name": "newOwner",
          "type": "address"
        }
      ],
      "name": "transferOwnership",
      "outputs": [],
      "stateMutability": "nonpayable",
      "type": "function"
    },
    {
      "inputs": [],
      "name": "votingPeriod",
      "outputs": [
        {
          "internalType": "uint256",
          "name": "",
          "type": "uint256"
        }
      ],
      "stateMutability": "view",
      "type": "function"
    }
  ],
  "bytecode": "0x60806040523480156200001157600080fd5b506040516200472c3803806200472c833981810160405281019062000037919062000217565b620000576200004b620000e160201b60201c565b620000e960201b60201c565b80600460006101000a81548173ffffffffffffffffffffffffffffffffffffffff021916908373ffffffffffffffffffffffffffffffffffffffff16021790555081600160006101000a81548173ffffffffffffffffffffffffffffffffffffffff021916908373ffffffffffffffffffffffffffffffffffffffff16021790555050506200025e565b600033905090565b60008060009054906101000a900473ffffffffffffffffffffffffffffffffffffffff169050816000806101000a81548173ffffffffffffffffffffffffffffffffffffffff021916908373ffffffffffffffffffffffffffffffffffffffff1602179055508173ffffffffffffffffffffffffffffffffffffffff168173ffffffffffffffffffffffffffffffffffffffff167f8be0079c531659141344cd1fd0a4f28419497f9722a3daafe3b4186f6b6457e060405160405180910390a35050565b600080fd5b600073ffffffffffffffffffffffffffffffffffffffff82169050919050565b6000620001df82620001b2565b9050919050565b620001f181620001d2565b8114620001fd57600080fd5b50565b6000815190506200021181620001e6565b92915050565b60008060408385031215620002315762000230620001ad565b5b6000620002418582860162000200565b9250506020620002548582860162000200565b9150509250929050565b6144be806200026e6000396000f3fe6080604052600436106101355760003560e01c8063715018a6116100ab578063c59057e41161006f578063c59057e414610450578063cbcda2011461048d578063d5040d65146104ca578063ea0217cf146104f3578063f2fde38b1461051c578063fc0c546a1461054557610135565b8063715018a6146103695780637d5e81e2146103805780638da5cb5b146103bd57806391ddadf4146103e8578063981df9fb1461041357610135565b806332f6a1dc116100fd57806332f6a1dc146102355780633487823e1461025e5780633d24375f146102875780634dfb4328146102c457806352142675146102ef57806361d585da1461032c57610135565b806302a251a31461013a57806308e8ac38146101655780632656227d146101a2578063305ac9f4146101d257806332ed5b12146101ee575b600080fd5b34801561014657600080fd5b5061014f610570565b60405161015c919061230b565b60405180910390f35b34801561017157600080fd5b5061018c60048036038101906101879190612480565b61057a565b6040516101999190612548565b60405180910390f35b6101bc60048036038101906101b79190612937565b61086e565b6040516101c99190612a01565b60405180910390f35b6101ec60048036038101906101e79190612a1c565b6109a2565b005b3480156101fa57600080fd5b5061021560048036038101906102109190612a1c565b610cbb565b60405161022c9b9a99989796959493929190612a96565b60405180910390f35b34801561024157600080fd5b5061025c60048036038101906102579190612b41565b610d77565b005b34801561026a57600080fd5b5061028560048036038101906102809190612bc9565b610d89565b005b34801561029357600080fd5b506102ae60048036038101906102a99190612a1c565b610e18565b6040516102bb919061230b565b60405180910390f35b3480156102d057600080fd5b506102d9610e56565b6040516102e6919061230b565b60405180910390f35b3480156102fb57600080fd5b5061031660048036038101906103119190612c61565b610eee565b6040516103239190612548565b60405180910390f35b34801561033857600080fd5b50610353600480360381019061034e9190612a1c565b610f17565b6040516103609190612d21565b60405180910390f35b34801561037557600080fd5b5061037e61109b565b005b34801561038c57600080fd5b506103a760048036038101906103a29190612d3c565b6110af565b6040516103b49190612a01565b60405180910390f35b3480156103c957600080fd5b506103d261154c565b6040516103df9190612e13565b60405180910390f35b3480156103f457600080fd5b506103fd611575565b60405161040a9190612e4f565b60405180910390f35b34801561041f57600080fd5b5061043a60048036038101906104359190612b41565b611585565b6040516104479190612a01565b60405180910390f35b34801561045c57600080fd5b5061047760048036038101906104729190612937565b61159d565b6040516104849190612a01565b60405180910390f35b34801561049957600080fd5b506104b460048036038101906104af9190612a1c565b6115d6565b6040516104c1919061230b565b60405180910390f35b3480156104d657600080fd5b506104f160048036038101906104ec9190612e8f565b611614565b005b3480156104ff57600080fd5b5061051a60048036038101906105159190612b41565b6117d1565b005b34801561052857600080fd5b50610543600480360381019061053e9190612f17565b6117e3565b005b34801561055157600080fd5b5061055a611866565b6040516105679190612fa3565b60405180910390f35b6000600254905090565b606060008290506000600282511015801561061657507f30000000000000000000000000000000000000000000000000000000000000007effffffffffffffffffffffffffffffffffffffffffffffffffffffffffffff1916826000815181106105e7576105e6612fbe565b5b602001015160f81c60f81b7effffffffffffffffffffffffffffffffffffffffffffffffffffffffffffff1916145b80156106a357507f78000000000000000000000000000000000000000000000000000000000000007effffffffffffffffffffffffffffffffffffffffffffffffffffffffffffff19168260018151811061067457610673612fbe565b5b602001015160f81c60f81b7effffffffffffffffffffffffffffffffffffffffffffffffffffffffffffff1916145b156106ad57600290505b600060028284516106be919061301c565b6106c8919061307f565b14610708576040517f08c379a00000000000000000000000000000000000000000000000000000000081526004016106ff9061310d565b60405180910390fd5b60006002828451610719919061301c565b610723919061312d565b67ffffffffffffffff81111561073c5761073b612355565b5b6040519080825280601f01601f19166020018201604052801561076e5781602001600182028036833780820191505090505b50905060008290505b83518110156108625760006107ab85838151811061079857610797612fbe565b5b602001015160f81c60f81b60f81c61188c565b905060006107e4866001856107c0919061315e565b815181106107d1576107d0612fbe565b5b602001015160f81c60f81b60f81c61188c565b90508060048360ff16901b1760f81b8460028786610802919061301c565b61080c919061312d565b8151811061081d5761081c612fbe565b5b60200101907effffffffffffffffffffffffffffffffffffffffffffffffffffffffffffff1916908160001a905350505060028161085b919061315e565b9050610777565b50809350505050919050565b60008061087d8686868661159d565b9050600061088a82610f17565b9050600460098111156108a05761089f612caa565b5b8160098111156108b3576108b2612caa565b5b14806108e35750600560098111156108ce576108cd612caa565b5b8160098111156108e1576108e0612caa565b5b145b610922576040517f08c379a000000000000000000000000000000000000000000000000000000000815260040161091990613204565b60405180910390fd5b60016005600084815260200190815260200160002060010160086101000a81548160ff0219169083151502179055507f7b1bcf1ccf901a11589afff5504d59fd0a53780eed2a952adade0348985139e0826040516109809190612a01565b60405180910390a16109958288888888611979565b8192505050949350505050565b600860098111156109b6576109b5612caa565b5b6109bf82610f17565b60098111156109d1576109d0612caa565b5b14610a11576040517f08c379a0000000000000000000000000000000000000000000000000000000008152600401610a0890613296565b60405180910390fd5b6000600460009054906101000a900473ffffffffffffffffffffffffffffffffffffffff1673ffffffffffffffffffffffffffffffffffffffff16634dfb43286040518163ffffffff1660e01b8152600401602060405180830381865afa158015610a80573d6000803e3d6000fd5b505050506040513d601f19601f82011682018060405250810190610aa491906132cb565b905080341015610ae9576040517f08c379a0000000000000000000000000000000000000000000000000000000008152600401610ae090613344565b60405180910390fd5b60006040518060e0016040528060b081526020016143d960b09139610b108460001c611a88565b6040518060e0016040528060a5815260200161430d60a59139604051602001610b3b939291906133ab565b60405160208183030381529060405290506000600460009054906101000a900473ffffffffffffffffffffffffffffffffffffffff1673ffffffffffffffffffffffffffffffffffffffff1663321bbe4984308560016003811115610ba357610ba2612caa565b5b6040518563ffffffff1660e01b8152600401610bc193929190613431565b60206040518083038185885af1158015610bdf573d6000803e3d6000fd5b50505050506040513d601f19601f82011682018060405250810190610c0491906132cb565b905060008111610c49576040517f08c379a0000000000000000000000000000000000000000000000000000000008152600401610c40906134bb565b60405180910390fd5b8060056000868152602001908152602001600020600501819055508360066000838152602001908152602001600020819055507f7a5b504cfe0c233868616d9dae3c31b2c4cb8e34e72e9ebb41ac1c5f685d577a8482604051610cad9291906134db565b60405180910390a150505050565b60056020528060005260406000206000915090508060000160009054906101000a900467ffffffffffffffff16908060000160089054906101000a900473ffffffffffffffffffffffffffffffffffffffff16908060010160009054906101000a900467ffffffffffffffff16908060010160089054906101000a900460ff16908060010160099054906101000a900460ff1690806002015490806003015490806004015490806005015490806006015490806007015490508b565b610d7f611aa6565b8060038190555050565b600460009054906101000a900473ffffffffffffffffffffffffffffffffffffffff1673ffffffffffffffffffffffffffffffffffffffff168473ffffffffffffffffffffffffffffffffffffffff1614610de357600080fd5b600060056000600660008781526020019081526020016000205481526020019081526020016000206005018190555050505050565b60006005600083815260200190815260200160002060010160009054906101000a900467ffffffffffffffff1667ffffffffffffffff169050919050565b6000600460009054906101000a900473ffffffffffffffffffffffffffffffffffffffff1673ffffffffffffffffffffffffffffffffffffffff16634dfb43286040518163ffffffff1660e01b8152600401602060405180830381865afa158015610ec5573d6000803e3d6000fd5b505050506040513d601f19601f82011682018060405250810190610ee991906132cb565b905090565b606081604051602001610f0191906136a0565b6040516020818303038152906040529050919050565b6000806005600084815260200190815260200160002090508060010160089054906101000a900460ff1615610f50576007915050611096565b8060010160099054906101000a900460ff1615610f71576002915050611096565b6000610f7c846115d6565b905060008103610fc1576040517f08c379a0000000000000000000000000000000000000000000000000000000008152600401610fb89061370e565b60405180910390fd5b6000610fcb611575565b65ffffffffffff169050808210610fe85760009350505050611096565b6000610ff386610e18565b9050818110611009576001945050505050611096565b6000600560008881526020019081526020016000206005015403611034576008945050505050611096565b6000801b600560008881526020019081526020016000206006015403611061576009945050505050611096565b61106a86611b24565b801561107b575061107a86611c18565b5b1561108d576004945050505050611096565b60039450505050505b919050565b6110a3611aa6565b6110ad6000611c50565b565b6000806110ba611d14565b90506110c68184611d1c565b611105576040517f08c379a00000000000000000000000000000000000000000000000000000000081526004016110fc9061377a565b60405180910390fd5b600061110f611575565b65ffffffffffff169050600061112e888888888051906020012061159d565b90508651885114611174576040517f08c379a000000000000000000000000000000000000000000000000000000000815260040161116b9061380c565b60405180910390fd5b85518851146111b8576040517f08c379a00000000000000000000000000000000000000000000000000000000081526004016111af9061380c565b60405180910390fd5b60008851116111fc576040517f08c379a00000000000000000000000000000000000000000000000000000000081526004016111f390613878565b60405180910390fd5b60006005600083815260200190815260200160002060000160009054906101000a900467ffffffffffffffff1667ffffffffffffffff1614611273576040517f08c379a000000000000000000000000000000000000000000000000000000000815260040161126a9061390a565b60405180910390fd5b60008290506000611282610570565b8261128d919061315e565b90506040518061016001604052806112a484611e6e565b67ffffffffffffffff1681526020018673ffffffffffffffffffffffffffffffffffffffff1681526020016112d883611e6e565b67ffffffffffffffff168152602001600015158152602001600015158152602001600081526020016000815260200160008152602001600081526020016000801b8152602001600160009054906101000a900473ffffffffffffffffffffffffffffffffffffffff1673ffffffffffffffffffffffffffffffffffffffff16639711715a6040518163ffffffff1660e01b81526004016020604051808303816000875af115801561138d573d6000803e3d6000fd5b505050506040513d601f19601f820116820180604052508101906113b191906132cb565b8152506005600085815260200190815260200160002060008201518160000160006101000a81548167ffffffffffffffff021916908367ffffffffffffffff16021790555060208201518160000160086101000a81548173ffffffffffffffffffffffffffffffffffffffff021916908373ffffffffffffffffffffffffffffffffffffffff16021790555060408201518160010160006101000a81548167ffffffffffffffff021916908367ffffffffffffffff16021790555060608201518160010160086101000a81548160ff02191690831515021790555060808201518160010160096101000a81548160ff02191690831515021790555060a0820151816002015560c0820151816003015560e082015181600401556101008201518160050155610120820151816006015561014082015181600701559050507fddb34e21bdbfcf8610214899db7ed5dedcf5cbed0c9f66f17db30f992b048cf183868c8c8c87878e8f8051906020012060405161153499989796959493929190613ba3565b60405180910390a18295505050505050949350505050565b60008060009054906101000a900473ffffffffffffffffffffffffffffffffffffffff16905090565b600061158042611ec5565b905090565b60066020528060005260406000206000915090505481565b6000848484846040516020016115b69493929190613c4c565b604051602081830303815290604052805190602001209050949350505050565b60006005600083815260200190815260200160002060000160009054906101000a900467ffffffffffffffff1667ffffffffffffffff169050919050565b6001600381111561162857611627612caa565b5b83600381111561163b5761163a612caa565b5b1461164557600080fd5b600460009054906101000a900473ffffffffffffffffffffffffffffffffffffffff1673ffffffffffffffffffffffffffffffffffffffff163373ffffffffffffffffffffffffffffffffffffffff161461169f57600080fd5b60006116ee83838080601f016020809104026020016040519081016040528093929190818152602001838380828437600081840152601f19601f8201169050808301925050505050505061057a565b8060200190518101906117019190613ddd565b90506000600560006006600089815260200190815260200160002054815260200190815260200160002090508160600151816006018190555081600001518160020181905550816020015181600301819055508160400151816004018190555060066000878152602001908152602001600020547f60f75ebd466513973ccb15fed6809ede4ebc4f69896c116c511d233c513b804b836060015184600001518560200151866040015187608001516040516117c0959493929190613e26565b60405180910390a250505050505050565b6117d9611aa6565b8060028190555050565b6117eb611aa6565b600073ffffffffffffffffffffffffffffffffffffffff168173ffffffffffffffffffffffffffffffffffffffff160361185a576040517f08c379a000000000000000000000000000000000000000000000000000000000815260040161185190613ef2565b60405180910390fd5b61186381611c50565b50565b600160009054906101000a900473ffffffffffffffffffffffffffffffffffffffff1681565b600060308260ff16101580156118a6575060398260ff1611155b156118bf576030826118b89190613f12565b9050611974565b60618260ff16101580156118d7575060668260ff1611155b156118fc57606182600a6118eb9190613f47565b6118f59190613f12565b9050611974565b60418260ff1610158015611914575060468260ff1611155b1561193957604182600a6119289190613f47565b6119329190613f12565b9050611974565b6040517f08c379a000000000000000000000000000000000000000000000000000000000815260040161196b90613fc8565b60405180910390fd5b919050565b60006040518060600160405280602781526020016143b260279139905060005b8551811015611a7f576000808783815181106119b8576119b7612fbe565b5b602002602001015173ffffffffffffffffffffffffffffffffffffffff168784815181106119e9576119e8612fbe565b5b6020026020010151878581518110611a0457611a03612fbe565b5b6020026020010151604051611a199190614024565b60006040518083038185875af1925050503d8060008114611a56576040519150601f19603f3d011682016040523d82523d6000602084013e611a5b565b606091505b5091509150611a6b828286611f1a565b50505080611a789061403b565b9050611999565b50505050505050565b6060611a9f826001611a9985611f3c565b01611fcc565b9050919050565b611aae611d14565b73ffffffffffffffffffffffffffffffffffffffff16611acc61154c565b73ffffffffffffffffffffffffffffffffffffffff1614611b22576040517f08c379a0000000000000000000000000000000000000000000000000000000008152600401611b19906140cf565b60405180910390fd5b565b6000670de0b6b3a7640000600160009054906101000a900473ffffffffffffffffffffffffffffffffffffffff1673ffffffffffffffffffffffffffffffffffffffff1663981b24d060056000868152602001908152602001600020600701546040518263ffffffff1660e01b8152600401611ba0919061230b565b602060405180830381865afa158015611bbd573d6000803e3d6000fd5b505050506040513d601f19601f82011682018060405250810190611be191906132cb565b600354611bee91906140ef565b611bf8919061312d565b600560008481526020019081526020016000206002015410159050919050565b600060056000838152602001908152602001600020600301546005600084815260200190815260200160002060020154119050919050565b60008060009054906101000a900473ffffffffffffffffffffffffffffffffffffffff169050816000806101000a81548173ffffffffffffffffffffffffffffffffffffffff021916908373ffffffffffffffffffffffffffffffffffffffff1602179055508173ffffffffffffffffffffffffffffffffffffffff168173ffffffffffffffffffffffffffffffffffffffff167f8be0079c531659141344cd1fd0a4f28419497f9722a3daafe3b4186f6b6457e060405160405180910390a35050565b600033905090565b600080825190506034811015611d36576001915050611e68565b60006014820384015190507f2370726f706f7365723d3078000000000000000000000000000000000000000073ffffffffffffffffffffffffffffffffffffffff19168173ffffffffffffffffffffffffffffffffffffffff191614611da157600192505050611e68565b600080602884611db1919061301c565b90505b83811015611e3257600080611de5888481518110611dd557611dd4612fbe565b5b602001015160f81c60f81b612208565b9150915081611dfd5760019650505050505050611e68565b8060ff1660048573ffffffffffffffffffffffffffffffffffffffff16901b179350505080611e2b9061403b565b9050611db4565b508573ffffffffffffffffffffffffffffffffffffffff168173ffffffffffffffffffffffffffffffffffffffff161493505050505b92915050565b600067ffffffffffffffff8016821115611ebd576040517f08c379a0000000000000000000000000000000000000000000000000000000008152600401611eb4906141a3565b60405180910390fd5b819050919050565b600065ffffffffffff8016821115611f12576040517f08c379a0000000000000000000000000000000000000000000000000000000008152600401611f0990614235565b60405180910390fd5b819050919050565b60608315611f2a57829050611f35565b611f3483836122a2565b5b9392505050565b600080600090506000608084901c1115611f5e57608083901c92506010810190505b6000604084901c1115611f7957604083901c92506008810190505b6000602084901c1115611f9457602083901c92506004810190505b6000601084901c1115611faf57601083901c92506002810190505b6000600884901c1115611fc3576001810190505b80915050919050565b606060006002836002611fdf91906140ef565b611fe9919061315e565b67ffffffffffffffff81111561200257612001612355565b5b6040519080825280601f01601f1916602001820160405280156120345781602001600182028036833780820191505090505b5090507f30000000000000000000000000000000000000000000000000000000000000008160008151811061206c5761206b612fbe565b5b60200101907effffffffffffffffffffffffffffffffffffffffffffffffffffffffffffff1916908160001a9053507f7800000000000000000000000000000000000000000000000000000000000000816001815181106120d0576120cf612fbe565b5b60200101907effffffffffffffffffffffffffffffffffffffffffffffffffffffffffffff1916908160001a9053506000600184600261211091906140ef565b61211a919061315e565b90505b60018111156121ba577f3031323334353637383961626364656600000000000000000000000000000000600f86166010811061215c5761215b612fbe565b5b1a60f81b82828151811061217357612172612fbe565b5b60200101907effffffffffffffffffffffffffffffffffffffffffffffffffffffffffffff1916908160001a905350600485901c9450806121b390614255565b905061211d565b50600084146121fe576040517f08c379a00000000000000000000000000000000000000000000000000000000081526004016121f5906142ca565b60405180910390fd5b8091505092915050565b60008060008360f81c90508060ff16602f1080156122295750603a8160ff16105b1561223e57600160308203925092505061229d565b8060ff166040108015612254575060478160ff16105b1561226957600160378203925092505061229d565b8060ff16606010801561227f575060678160ff16105b1561229457600160578203925092505061229d565b60008092509250505b915091565b6000825111156122b55781518083602001fd5b806040517f08c379a00000000000000000000000000000000000000000000000000000000081526004016122e991906142ea565b60405180910390fd5b6000819050919050565b612305816122f2565b82525050565b600060208201905061232060008301846122fc565b92915050565b6000604051905090565b600080fd5b600080fd5b600080fd5b600080fd5b6000601f19601f8301169050919050565b7f4e487b7100000000000000000000000000000000000000000000000000000000600052604160045260246000fd5b61238d82612344565b810181811067ffffffffffffffff821117156123ac576123ab612355565b5b80604052505050565b60006123bf612326565b90506123cb8282612384565b919050565b600067ffffffffffffffff8211156123eb576123ea612355565b5b6123f482612344565b9050602081019050919050565b82818337600083830152505050565b600061242361241e846123d0565b6123b5565b90508281526020810184848401111561243f5761243e61233f565b5b61244a848285612401565b509392505050565b600082601f8301126124675761246661233a565b5b8135612477848260208601612410565b91505092915050565b60006020828403121561249657612495612330565b5b600082013567ffffffffffffffff8111156124b4576124b3612335565b5b6124c084828501612452565b91505092915050565b600081519050919050565b600082825260208201905092915050565b60005b838110156125035780820151818401526020810190506124e8565b60008484015250505050565b600061251a826124c9565b61252481856124d4565b93506125348185602086016124e5565b61253d81612344565b840191505092915050565b60006020820190508181036000830152612562818461250f565b905092915050565b600067ffffffffffffffff82111561258557612584612355565b5b602082029050602081019050919050565b600080fd5b600073ffffffffffffffffffffffffffffffffffffffff82169050919050565b60006125c68261259b565b9050919050565b6125d6816125bb565b81146125e157600080fd5b50565b6000813590506125f3816125cd565b92915050565b600061260c6126078461256a565b6123b5565b9050808382526020820190506020840283018581111561262f5761262e612596565b5b835b81811015612658578061264488826125e4565b845260208401935050602081019050612631565b5050509392505050565b600082601f8301126126775761267661233a565b5b81356126878482602086016125f9565b91505092915050565b600067ffffffffffffffff8211156126ab576126aa612355565b5b602082029050602081019050919050565b6126c5816122f2565b81146126d057600080fd5b50565b6000813590506126e2816126bc565b92915050565b60006126fb6126f684612690565b6123b5565b9050808382526020820190506020840283018581111561271e5761271d612596565b5b835b81811015612747578061273388826126d3565b845260208401935050602081019050612720565b5050509392505050565b600082601f8301126127665761276561233a565b5b81356127768482602086016126e8565b91505092915050565b600067ffffffffffffffff82111561279a57612799612355565b5b602082029050602081019050919050565b600067ffffffffffffffff8211156127c6576127c5612355565b5b6127cf82612344565b9050602081019050919050565b60006127ef6127ea846127ab565b6123b5565b90508281526020810184848401111561280b5761280a61233f565b5b612816848285612401565b509392505050565b600082601f8301126128335761283261233a565b5b81356128438482602086016127dc565b91505092915050565b600061285f61285a8461277f565b6123b5565b9050808382526020820190506020840283018581111561288257612881612596565b5b835b818110156128c957803567ffffffffffffffff8111156128a7576128a661233a565b5b8086016128b4898261281e565b85526020850194505050602081019050612884565b5050509392505050565b600082601f8301126128e8576128e761233a565b5b81356128f884826020860161284c565b91505092915050565b6000819050919050565b61291481612901565b811461291f57600080fd5b50565b6000813590506129318161290b565b92915050565b6000806000806080858703121561295157612950612330565b5b600085013567ffffffffffffffff81111561296f5761296e612335565b5b61297b87828801612662565b945050602085013567ffffffffffffffff81111561299c5761299b612335565b5b6129a887828801612751565b935050604085013567ffffffffffffffff8111156129c9576129c8612335565b5b6129d5878288016128d3565b92505060606129e687828801612922565b91505092959194509250565b6129fb81612901565b82525050565b6000602082019050612a1660008301846129f2565b92915050565b600060208284031215612a3257612a31612330565b5b6000612a4084828501612922565b91505092915050565b600067ffffffffffffffff82169050919050565b612a6681612a49565b82525050565b612a75816125bb565b82525050565b60008115159050919050565b612a9081612a7b565b82525050565b600061016082019050612aac600083018e612a5d565b612ab9602083018d612a6c565b612ac6604083018c612a5d565b612ad3606083018b612a87565b612ae0608083018a612a87565b612aed60a08301896122fc565b612afa60c08301886122fc565b612b0760e08301876122fc565b612b156101008301866122fc565b612b236101208301856129f2565b612b316101408301846122fc565b9c9b505050505050505050505050565b600060208284031215612b5757612b56612330565b5b6000612b65848285016126d3565b91505092915050565b600080fd5b60008083601f840112612b8957612b8861233a565b5b8235905067ffffffffffffffff811115612ba657612ba5612b6e565b5b602083019150836001820283011115612bc257612bc1612596565b5b9250929050565b60008060008060608587031215612be357612be2612330565b5b6000612bf1878288016125e4565b9450506020612c02878288016126d3565b935050604085013567ffffffffffffffff811115612c2357612c22612335565b5b612c2f87828801612b73565b925092505092959194509250565b600080fd5b600060a08284031215612c5857612c57612c3d565b5b81905092915050565b600060208284031215612c7757612c76612330565b5b600082013567ffffffffffffffff811115612c9557612c94612335565b5b612ca184828501612c42565b91505092915050565b7f4e487b7100000000000000000000000000000000000000000000000000000000600052602160045260246000fd5b600a8110612cea57612ce9612caa565b5b50565b6000819050612cfb82612cd9565b919050565b6000612d0b82612ced565b9050919050565b612d1b81612d00565b82525050565b6000602082019050612d366000830184612d12565b92915050565b60008060008060808587031215612d5657612d55612330565b5b600085013567ffffffffffffffff811115612d7457612d73612335565b5b612d8087828801612662565b945050602085013567ffffffffffffffff811115612da157612da0612335565b5b612dad87828801612751565b935050604085013567ffffffffffffffff811115612dce57612dcd612335565b5b612dda878288016128d3565b925050606085013567ffffffffffffffff811115612dfb57612dfa612335565b5b612e0787828801612452565b91505092959194509250565b6000602082019050612e286000830184612a6c565b92915050565b600065ffffffffffff82169050919050565b612e4981612e2e565b82525050565b6000602082019050612e646000830184612e40565b92915050565b60048110612e7757600080fd5b50565b600081359050612e8981612e6a565b92915050565b600080600080600060808688031215612eab57612eaa612330565b5b6000612eb9888289016125e4565b9550506020612eca888289016126d3565b9450506040612edb88828901612e7a565b935050606086013567ffffffffffffffff811115612efc57612efb612335565b5b612f0888828901612b73565b92509250509295509295909350565b600060208284031215612f2d57612f2c612330565b5b6000612f3b848285016125e4565b91505092915050565b6000819050919050565b6000612f69612f64612f5f8461259b565b612f44565b61259b565b9050919050565b6000612f7b82612f4e565b9050919050565b6000612f8d82612f70565b9050919050565b612f9d81612f82565b82525050565b6000602082019050612fb86000830184612f94565b92915050565b7f4e487b7100000000000000000000000000000000000000000000000000000000600052603260045260246000fd5b7f4e487b7100000000000000000000000000000000000000000000000000000000600052601160045260246000fd5b6000613027826122f2565b9150613032836122f2565b925082820390508181111561304a57613049612fed565b5b92915050565b7f4e487b7100000000000000000000000000000000000000000000000000000000600052601260045260246000fd5b600061308a826122f2565b9150613095836122f2565b9250826130a5576130a4613050565b5b828206905092915050565b600082825260208201905092915050565b7f496e76616c69642068657820737472696e67206c656e67746821000000000000600082015250565b60006130f7601a836130b0565b9150613102826130c1565b602082019050919050565b60006020820190508181036000830152613126816130ea565b9050919050565b6000613138826122f2565b9150613143836122f2565b92508261315357613152613050565b5b828204905092915050565b6000613169826122f2565b9150613174836122f2565b925082820190508082111561318c5761318b612fed565b5b92915050565b7f476f7665726e6f723a2070726f706f73616c206e6f742073756363657373667560008201527f6c00000000000000000000000000000000000000000000000000000000000000602082015250565b60006131ee6021836130b0565b91506131f982613192565b604082019050919050565b6000602082019050818103600083015261321d816131e1565b9050919050565b7f476f7665726e6f723a20766f7465206e6f7420696e205265736f6c7574696f6e60008201527f546f526571756573742073746174650000000000000000000000000000000000602082015250565b6000613280602f836130b0565b915061328b82613224565b604082019050919050565b600060208201905081810360008301526132af81613273565b9050919050565b6000815190506132c5816126bc565b92915050565b6000602082840312156132e1576132e0612330565b5b60006132ef848285016132b6565b91505092915050565b7f476f7665726e6f723a20696e73756666696369656e7420666565000000000000600082015250565b600061332e601a836130b0565b9150613339826132f8565b602082019050919050565b6000602082019050818103600083015261335d81613321565b9050919050565b600081519050919050565b600081905092915050565b600061338582613364565b61338f818561336f565b935061339f8185602086016124e5565b80840191505092915050565b60006133b7828661337a565b91506133c3828561337a565b91506133cf828461337a565b9150819050949350505050565b60006133e782613364565b6133f181856130b0565b93506134018185602086016124e5565b61340a81612344565b840191505092915050565b600060ff82169050919050565b61342b81613415565b82525050565b60006060820190506134466000830186612a6c565b818103602083015261345881856133dc565b90506134676040830184613422565b949350505050565b7f6a6f62206469646e27742072657475726e20612076616c756500000000000000600082015250565b60006134a56019836130b0565b91506134b08261346f565b602082019050919050565b600060208201905081810360008301526134d481613498565b9050919050565b60006040820190506134f060008301856129f2565b6134fd60208301846122fc565b9392505050565b600061351360208401846126d3565b905092915050565b613524816122f2565b82525050565b60006135396020840184612922565b905092915050565b61354a81612901565b82525050565b600080fd5b600080fd5b600080fd5b6000808335600160200384360303811261357c5761357b61355a565b5b83810192508235915060208301925067ffffffffffffffff8211156135a4576135a3613550565b5b6001820236038313156135ba576135b9613555565b5b509250929050565b600082825260208201905092915050565b60006135df83856135c2565b93506135ec838584612401565b6135f583612344565b840190509392505050565b600060a083016136136000840184613504565b613620600086018261351b565b5061362e6020840184613504565b61363b602086018261351b565b506136496040840184613504565b613656604086018261351b565b50613664606084018461352a565b6136716060860182613541565b5061367f608084018461355f565b85830360808701526136928382846135d3565b925050508091505092915050565b600060208201905081810360008301526136ba8184613600565b905092915050565b7f476f7665726e6f723a20756e6b6e6f776e2070726f706f73616c206964000000600082015250565b60006136f8601d836130b0565b9150613703826136c2565b602082019050919050565b60006020820190508181036000830152613727816136eb565b9050919050565b7f476f7665726e6f723a2070726f706f7365722072657374726963746564000000600082015250565b6000613764601d836130b0565b915061376f8261372e565b602082019050919050565b6000602082019050818103600083015261379381613757565b9050919050565b7f476f7665726e6f723a20696e76616c69642070726f706f73616c206c656e677460008201527f6800000000000000000000000000000000000000000000000000000000000000602082015250565b60006137f66021836130b0565b91506138018261379a565b604082019050919050565b60006020820190508181036000830152613825816137e9565b9050919050565b7f476f7665726e6f723a20656d7074792070726f706f73616c0000000000000000600082015250565b60006138626018836130b0565b915061386d8261382c565b602082019050919050565b6000602082019050818103600083015261389181613855565b9050919050565b7f476f7665726e6f723a2070726f706f73616c20616c726561647920657869737460008201527f7300000000000000000000000000000000000000000000000000000000000000602082015250565b60006138f46021836130b0565b91506138ff82613898565b604082019050919050565b60006020820190508181036000830152613923816138e7565b9050919050565b600081519050919050565b600082825260208201905092915050565b6000819050602082019050919050565b61395f816125bb565b82525050565b60006139718383613956565b60208301905092915050565b6000602082019050919050565b60006139958261392a565b61399f8185613935565b93506139aa83613946565b8060005b838110156139db5781516139c28882613965565b97506139cd8361397d565b9250506001810190506139ae565b5085935050505092915050565b600081519050919050565b600082825260208201905092915050565b6000819050602082019050919050565b6000613a20838361351b565b60208301905092915050565b6000602082019050919050565b6000613a44826139e8565b613a4e81856139f3565b9350613a5983613a04565b8060005b83811015613a8a578151613a718882613a14565b9750613a7c83613a2c565b925050600181019050613a5d565b5085935050505092915050565b600081519050919050565b600082825260208201905092915050565b6000819050602082019050919050565b600082825260208201905092915050565b6000613adf826124c9565b613ae98185613ac3565b9350613af98185602086016124e5565b613b0281612344565b840191505092915050565b6000613b198383613ad4565b905092915050565b6000602082019050919050565b6000613b3982613a97565b613b438185613aa2565b935083602082028501613b5585613ab3565b8060005b85811015613b915784840389528151613b728582613b0d565b9450613b7d83613b21565b925060208a01995050600181019050613b59565b50829750879550505050505092915050565b600061012082019050613bb9600083018c6129f2565b613bc6602083018b612a6c565b8181036040830152613bd8818a61398a565b90508181036060830152613bec8189613a39565b90508181036080830152613c008188613b2e565b9050613c0f60a08301876122fc565b613c1c60c08301866122fc565b81810360e0830152613c2e81856133dc565b9050613c3e6101008301846129f2565b9a9950505050505050505050565b60006080820190508181036000830152613c66818761398a565b90508181036020830152613c7a8186613a39565b90508181036040830152613c8e8185613b2e565b9050613c9d60608301846129f2565b95945050505050565b600080fd5b600080fd5b600081519050613cbf8161290b565b92915050565b6000613cd8613cd3846123d0565b6123b5565b905082815260208101848484011115613cf457613cf361233f565b5b613cff8482856124e5565b509392505050565b600082601f830112613d1c57613d1b61233a565b5b8151613d2c848260208601613cc5565b91505092915050565b600060a08284031215613d4b57613d4a613ca6565b5b613d5560a06123b5565b90506000613d65848285016132b6565b6000830152506020613d79848285016132b6565b6020830152506040613d8d848285016132b6565b6040830152506060613da184828501613cb0565b606083015250608082015167ffffffffffffffff811115613dc557613dc4613cab565b5b613dd184828501613d07565b60808301525092915050565b600060208284031215613df357613df2612330565b5b600082015167ffffffffffffffff811115613e1157613e10612335565b5b613e1d84828501613d35565b91505092915050565b600060a082019050613e3b60008301886129f2565b613e4860208301876122fc565b613e5560408301866122fc565b613e6260608301856122fc565b8181036080830152613e7481846133dc565b90509695505050505050565b7f4f776e61626c653a206e6577206f776e657220697320746865207a65726f206160008201527f6464726573730000000000000000000000000000000000000000000000000000602082015250565b6000613edc6026836130b0565b9150613ee782613e80565b604082019050919050565b60006020820190508181036000830152613f0b81613ecf565b9050919050565b6000613f1d82613415565b9150613f2883613415565b9250828203905060ff811115613f4157613f40612fed565b5b92915050565b6000613f5282613415565b9150613f5d83613415565b9250828201905060ff811115613f7657613f75612fed565b5b92915050565b7f496e76616c696420686578206368617221000000000000000000000000000000600082015250565b6000613fb26011836130b0565b9150613fbd82613f7c565b602082019050919050565b60006020820190508181036000830152613fe181613fa5565b9050919050565b600081905092915050565b6000613ffe826124c9565b6140088185613fe8565b93506140188185602086016124e5565b80840191505092915050565b60006140308284613ff3565b915081905092915050565b6000614046826122f2565b91507fffffffffffffffffffffffffffffffffffffffffffffffffffffffffffffffff820361407857614077612fed565b5b600182019050919050565b7f4f776e61626c653a2063616c6c6572206973206e6f7420746865206f776e6572600082015250565b60006140b96020836130b0565b91506140c482614083565b602082019050919050565b600060208201905081810360008301526140e8816140ac565b9050919050565b60006140fa826122f2565b9150614105836122f2565b9250828202614113816122f2565b9150828204841483151761412a57614129612fed565b5b5092915050565b7f53616665436173743a2076616c756520646f65736e27742066697420696e203660008201527f3420626974730000000000000000000000000000000000000000000000000000602082015250565b600061418d6026836130b0565b915061419882614131565b604082019050919050565b600060208201905081810360008301526141bc81614180565b9050919050565b7f53616665436173743a2076616c756520646f65736e27742066697420696e203460008201527f3820626974730000000000000000000000000000000000000000000000000000602082015250565b600061421f6026836130b0565b915061422a826141c3565b604082019050919050565b6000602082019050818103600083015261424e81614212565b9050919050565b6000614260826122f2565b91506000820361427357614272612fed565b5b600182039050919050565b7f537472696e67733a20686578206c656e67746820696e73756666696369656e74600082015250565b60006142b46020836130b0565b91506142bf8261427e565b602082019050919050565b600060208201905081810360008301526142e3816142a7565b9050919050565b6000602082019050818103600083015261430481846133dc565b90509291505056fe222c224e4f44455f55524c3d68747470733a2f2f6170692e63616c6962726174696f6e2e6e6f64652e676c69662e696f2f7270632f7630225d5d7d2c224c616e6775616765223a7b224a6f62436f6e74657874223a7b7d7d2c225761736d223a7b22456e7472794d6f64756c65223a7b7d7d2c225265736f7572636573223a7b22475055223a22227d2c224465616c223a207b22436f6e63757272656e6379223a20317d7d476f7665726e6f723a2063616c6c20726576657274656420776974686f7574206d6573736167657b22456e67696e65223a2022646f636b6572222c225665726966696572223a20226e6f6f70222c225075626c697368657253706563223a207b2254797065223a202265737475617279227d2c22446f636b6572223a207b22496d616765223a20226d616c646f7878782f646566696b69636b732d766f74652d7265736f6c7665723a6c6174657374222c22456e7669726f6e6d656e745661726961626c6573223a205b2250524f504f53414c5f49443da2646970667358221220aa8718227902155393d2335f270917f94d1a4a1fad6343eeaf6d7578ddf90d2b64736f6c63430008110033",
  "linkReferences": {},
  "deployedLinkReferences": {}
}