{
  "_format": "hh-sol-artifact-1",
  "contractName": "DefiKicksAdapterRegistry",
  "sourceName": "contracts/DefiKickAdapters.sol",
  "abi": [
    {
      "anonymous": false,
      "inputs": [
        {
          "indexed": false,
          "internalType": "string",
          "name": "name",
          "type": "string"
        },
        {
          "indexed": false,
          "internalType": "string",
          "name": "ipfsHash",
          "type": "string"
        }
      ],
      "name": "AdapterAdded",
      "type": "event"
    },
    {
      "anonymous": false,
      "inputs": [
        {
          "indexed": false,
          "internalType": "string",
          "name": "name",
          "type": "string"
        }
      ],
      "name": "AdapterRemoved",
      "type": "event"
    },
    {
      "anonymous": false,
      "inputs": [
        {
          "indexed": true,
          "internalType": "address",
          "name": "previousOwner",
          "type": "address"
        },
        {
          "indexed": true,
          "internalType": "address",
          "name": "newOwner",
          "type": "address"
        }
      ],
      "name": "OwnershipTransferred",
      "type": "event"
    },
    {
      "inputs": [
        {
          "internalType": "string",
          "name": "",
          "type": "string"
        }
      ],
      "name": "adapters",
      "outputs": [
        {
          "internalType": "string",
          "name": "name",
          "type": "string"
        },
        {
          "internalType": "string",
          "name": "ipfsHash",
          "type": "string"
        }
      ],
      "stateMutability": "view",
      "type": "function"
    },
    {
      "inputs": [
        {
          "internalType": "string",
          "name": "name",
          "type": "string"
        },
        {
          "internalType": "string",
          "name": "ipfsHash",
          "type": "string"
        }
      ],
      "name": "addAdapter",
      "outputs": [],
      "stateMutability": "nonpayable",
      "type": "function"
    },
    {
      "inputs": [],
      "name": "owner",
      "outputs": [
        {
          "internalType": "address",
          "name": "",
          "type": "address"
        }
      ],
      "stateMutability": "view",
      "type": "function"
    },
    {
      "inputs": [
        {
          "internalType": "string",
          "name": "name",
          "type": "string"
        }
      ],
      "name": "removeAdapter",
      "outputs": [],
      "stateMutability": "nonpayable",
      "type": "function"
    },
    {
      "inputs": [],
      "name": "renounceOwnership",
      "outputs": [],
      "stateMutability": "nonpayable",
      "type": "function"
    },
    {
      "inputs": [
        {
          "internalType": "address",
          "name": "newOwner",
          "type": "address"
        }
      ],
      "name": "transferOwnership",
      "outputs": [],
      "stateMutability": "nonpayable",
      "type": "function"
    }
  ],
  "bytecode": "0x608060405234801561001057600080fd5b5061002d61002261003260201b60201c565b61003a60201b60201c565b6100fe565b600033905090565b60008060009054906101000a900473ffffffffffffffffffffffffffffffffffffffff169050816000806101000a81548173ffffffffffffffffffffffffffffffffffffffff021916908373ffffffffffffffffffffffffffffffffffffffff1602179055508173ffffffffffffffffffffffffffffffffffffffff168173ffffffffffffffffffffffffffffffffffffffff167f8be0079c531659141344cd1fd0a4f28419497f9722a3daafe3b4186f6b6457e060405160405180910390a35050565b610fca8061010d6000396000f3fe608060405234801561001057600080fd5b50600436106100625760003560e01c8063125beeb0146100675780633ef11fd714610083578063715018a61461009f5780638da5cb5b146100a9578063b84f5d1e146100c7578063f2fde38b146100f8575b600080fd5b610081600480360381019061007c9190610835565b610114565b005b61009d600480360381019061009891906108ad565b610231565b005b6100a761032a565b005b6100b161033e565b6040516100be9190610937565b60405180910390f35b6100e160048036038101906100dc91906108ad565b610367565b6040516100ef9291906109d1565b60405180910390f35b610112600480360381019061010d9190610a34565b6104b1565b005b61011c610534565b600060018360405161012e9190610a9d565b90815260200160405180910390209050600081600001805461014f90610ae3565b905014610191576040517f08c379a000000000000000000000000000000000000000000000000000000000815260040161018890610b60565b60405180910390fd5b6040518060400160405280848152602001838152506001846040516101b69190610a9d565b908152602001604051809103902060008201518160000190816101d99190610d36565b5060208201518160010190816101ef9190610d36565b509050507f6b4f26ae33afdeac00f63b750356b8ab966245f61b28705dcc129913935410cb83836040516102249291906109d1565b60405180910390a1505050565b610239610534565b600060018260405161024b9190610a9d565b90815260200160405180910390209050600081600001805461026c90610ae3565b9050036102ae576040517f08c379a00000000000000000000000000000000000000000000000000000000081526004016102a590610e54565b60405180910390fd5b6001826040516102be9190610a9d565b9081526020016040518091039020600080820160006102dd919061067e565b6001820160006102ed919061067e565b50507fb00061f7cc154fc23eb34671ab724fc7eb7b806abae871abae8f1eafce9721358260405161031e9190610e74565b60405180910390a15050565b610332610534565b61033c60006105b2565b565b60008060009054906101000a900473ffffffffffffffffffffffffffffffffffffffff16905090565b6001818051602081018201805184825260208301602085012081835280955050505050506000915090508060000180546103a090610ae3565b80601f01602080910402602001604051908101604052809291908181526020018280546103cc90610ae3565b80156104195780601f106103ee57610100808354040283529160200191610419565b820191906000526020600020905b8154815290600101906020018083116103fc57829003601f168201915b50505050509080600101805461042e90610ae3565b80601f016020809104026020016040519081016040528092919081815260200182805461045a90610ae3565b80156104a75780601f1061047c576101008083540402835291602001916104a7565b820191906000526020600020905b81548152906001019060200180831161048a57829003601f168201915b5050505050905082565b6104b9610534565b600073ffffffffffffffffffffffffffffffffffffffff168173ffffffffffffffffffffffffffffffffffffffff1603610528576040517f08c379a000000000000000000000000000000000000000000000000000000000815260040161051f90610f08565b60405180910390fd5b610531816105b2565b50565b61053c610676565b73ffffffffffffffffffffffffffffffffffffffff1661055a61033e565b73ffffffffffffffffffffffffffffffffffffffff16146105b0576040517f08c379a00000000000000000000000000000000000000000000000000000000081526004016105a790610f74565b60405180910390fd5b565b60008060009054906101000a900473ffffffffffffffffffffffffffffffffffffffff169050816000806101000a81548173ffffffffffffffffffffffffffffffffffffffff021916908373ffffffffffffffffffffffffffffffffffffffff1602179055508173ffffffffffffffffffffffffffffffffffffffff168173ffffffffffffffffffffffffffffffffffffffff167f8be0079c531659141344cd1fd0a4f28419497f9722a3daafe3b4186f6b6457e060405160405180910390a35050565b600033905090565b50805461068a90610ae3565b6000825580601f1061069c57506106bb565b601f0160209004906000526020600020908101906106ba91906106be565b5b50565b5b808211156106d75760008160009055506001016106bf565b5090565b6000604051905090565b600080fd5b600080fd5b600080fd5b600080fd5b6000601f19601f8301169050919050565b7f4e487b7100000000000000000000000000000000000000000000000000000000600052604160045260246000fd5b610742826106f9565b810181811067ffffffffffffffff821117156107615761076061070a565b5b80604052505050565b60006107746106db565b90506107808282610739565b919050565b600067ffffffffffffffff8211156107a05761079f61070a565b5b6107a9826106f9565b9050602081019050919050565b82818337600083830152505050565b60006107d86107d384610785565b61076a565b9050828152602081018484840111156107f4576107f36106f4565b5b6107ff8482856107b6565b509392505050565b600082601f83011261081c5761081b6106ef565b5b813561082c8482602086016107c5565b91505092915050565b6000806040838503121561084c5761084b6106e5565b5b600083013567ffffffffffffffff81111561086a576108696106ea565b5b61087685828601610807565b925050602083013567ffffffffffffffff811115610897576108966106ea565b5b6108a385828601610807565b9150509250929050565b6000602082840312156108c3576108c26106e5565b5b600082013567ffffffffffffffff8111156108e1576108e06106ea565b5b6108ed84828501610807565b91505092915050565b600073ffffffffffffffffffffffffffffffffffffffff82169050919050565b6000610921826108f6565b9050919050565b61093181610916565b82525050565b600060208201905061094c6000830184610928565b92915050565b600081519050919050565b600082825260208201905092915050565b60005b8381101561098c578082015181840152602081019050610971565b60008484015250505050565b60006109a382610952565b6109ad818561095d565b93506109bd81856020860161096e565b6109c6816106f9565b840191505092915050565b600060408201905081810360008301526109eb8185610998565b905081810360208301526109ff8184610998565b90509392505050565b610a1181610916565b8114610a1c57600080fd5b50565b600081359050610a2e81610a08565b92915050565b600060208284031215610a4a57610a496106e5565b5b6000610a5884828501610a1f565b91505092915050565b600081905092915050565b6000610a7782610952565b610a818185610a61565b9350610a9181856020860161096e565b80840191505092915050565b6000610aa98284610a6c565b915081905092915050565b7f4e487b7100000000000000000000000000000000000000000000000000000000600052602260045260246000fd5b60006002820490506001821680610afb57607f821691505b602082108103610b0e57610b0d610ab4565b5b50919050565b7f4164617074657220616c72656164792065786973747300000000000000000000600082015250565b6000610b4a60168361095d565b9150610b5582610b14565b602082019050919050565b60006020820190508181036000830152610b7981610b3d565b9050919050565b60008190508160005260206000209050919050565b60006020601f8301049050919050565b600082821b905092915050565b600060088302610be27fffffffffffffffffffffffffffffffffffffffffffffffffffffffffffffffff82610ba5565b610bec8683610ba5565b95508019841693508086168417925050509392505050565b6000819050919050565b6000819050919050565b6000610c33610c2e610c2984610c04565b610c0e565b610c04565b9050919050565b6000819050919050565b610c4d83610c18565b610c61610c5982610c3a565b848454610bb2565b825550505050565b600090565b610c76610c69565b610c81818484610c44565b505050565b5b81811015610ca557610c9a600082610c6e565b600181019050610c87565b5050565b601f821115610cea57610cbb81610b80565b610cc484610b95565b81016020851015610cd3578190505b610ce7610cdf85610b95565b830182610c86565b50505b505050565b600082821c905092915050565b6000610d0d60001984600802610cef565b1980831691505092915050565b6000610d268383610cfc565b9150826002028217905092915050565b610d3f82610952565b67ffffffffffffffff811115610d5857610d5761070a565b5b610d628254610ae3565b610d6d828285610ca9565b600060209050601f831160018114610da05760008415610d8e578287015190505b610d988582610d1a565b865550610e00565b601f198416610dae86610b80565b60005b82811015610dd657848901518255600182019150602085019450602081019050610db1565b86831015610df35784890151610def601f891682610cfc565b8355505b6001600288020188555050505b505050505050565b7f4164617074657220646f6573206e6f7420657869737400000000000000000000600082015250565b6000610e3e60168361095d565b9150610e4982610e08565b602082019050919050565b60006020820190508181036000830152610e6d81610e31565b9050919050565b60006020820190508181036000830152610e8e8184610998565b905092915050565b7f4f776e61626c653a206e6577206f776e657220697320746865207a65726f206160008201527f6464726573730000000000000000000000000000000000000000000000000000602082015250565b6000610ef260268361095d565b9150610efd82610e96565b604082019050919050565b60006020820190508181036000830152610f2181610ee5565b9050919050565b7f4f776e61626c653a2063616c6c6572206973206e6f7420746865206f776e6572600082015250565b6000610f5e60208361095d565b9150610f6982610f28565b602082019050919050565b60006020820190508181036000830152610f8d81610f51565b905091905056fea2646970667358221220344f596f959d91d2418fe469faaaa5ed0113d8fbd393be64a3549162a3766f9a64736f6c63430008110033",
  "linkReferences": {},
  "deployedLinkReferences": {}
}