{
  "_format": "hh-sol-artifact-1",
  "contractName": "DefiKicksDataGovernanceToken",
  "sourceName": "contracts/DataGovernanceToken.sol",
  "abi": [
    {
      "inputs": [],
      "stateMutability": "nonpayable",
      "type": "constructor"
    },
    {
      "anonymous": false,
      "inputs": [
        {
          "indexed": true,
          "internalType": "address",
          "name": "owner",
          "type": "address"
        },
        {
          "indexed": true,
          "internalType": "address",
          "name": "spender",
          "type": "address"
        },
        {
          "indexed": false,
          "internalType": "uint256",
          "name": "value",
          "type": "uint256"
        }
      ],
      "name": "Approval",
      "type": "event"
    },
    {
      "anonymous": false,
      "inputs": [
        {
          "indexed": true,
          "internalType": "address",
          "name": "previousOwner",
          "type": "address"
        },
        {
          "indexed": true,
          "internalType": "address",
          "name": "newOwner",
          "type": "address"
        }
      ],
      "name": "OwnershipTransferred",
      "type": "event"
    },
    {
      "anonymous": false,
      "inputs": [
        {
          "indexed": false,
          "internalType": "uint256",
          "name": "id",
          "type": "uint256"
        }
      ],
      "name": "Snapshot",
      "type": "event"
    },
    {
      "anonymous": false,
      "inputs": [
        {
          "indexed": true,
          "internalType": "address",
          "name": "from",
          "type": "address"
        },
        {
          "indexed": true,
          "internalType": "address",
          "name": "to",
          "type": "address"
        },
        {
          "indexed": false,
          "internalType": "uint256",
          "name": "value",
          "type": "uint256"
        }
      ],
      "name": "Transfer",
      "type": "event"
    },
    {
      "inputs": [
        {
          "internalType": "address",
          "name": "owner",
          "type": "address"
        },
        {
          "internalType": "address",
          "name": "spender",
          "type": "address"
        }
      ],
      "name": "allowance",
      "outputs": [
        {
          "internalType": "uint256",
          "name": "",
          "type": "uint256"
        }
      ],
      "stateMutability": "view",
      "type": "function"
    },
    {
      "inputs": [
        {
          "internalType": "address",
          "name": "spender",
          "type": "address"
        },
        {
          "internalType": "uint256",
          "name": "amount",
          "type": "uint256"
        }
      ],
      "name": "approve",
      "outputs": [
        {
          "internalType": "bool",
          "name": "",
          "type": "bool"
        }
      ],
      "stateMutability": "nonpayable",
      "type": "function"
    },
    {
      "inputs": [
        {
          "internalType": "address",
          "name": "account",
          "type": "address"
        }
      ],
      "name": "balanceOf",
      "outputs": [
        {
          "internalType": "uint256",
          "name": "",
          "type": "uint256"
        }
      ],
      "stateMutability": "view",
      "type": "function"
    },
    {
      "inputs": [
        {
          "internalType": "address",
          "name": "account",
          "type": "address"
        },
        {
          "internalType": "uint256",
          "name": "snapshotId",
          "type": "uint256"
        }
      ],
      "name": "balanceOfAt",
      "outputs": [
        {
          "internalType": "uint256",
          "name": "",
          "type": "uint256"
        }
      ],
      "stateMutability": "view",
      "type": "function"
    },
    {
      "inputs": [],
      "name": "decimals",
      "outputs": [
        {
          "internalType": "uint8",
          "name": "",
          "type": "uint8"
        }
      ],
      "stateMutability": "view",
      "type": "function"
    },
    {
      "inputs": [
        {
          "internalType": "address",
          "name": "spender",
          "type": "address"
        },
        {
          "internalType": "uint256",
          "name": "subtractedValue",
          "type": "uint256"
        }
      ],
      "name": "decreaseAllowance",
      "outputs": [
        {
          "internalType": "bool",
          "name": "",
          "type": "bool"
        }
      ],
      "stateMutability": "nonpayable",
      "type": "function"
    },
    {
      "inputs": [
        {
          "internalType": "address",
          "name": "spender",
          "type": "address"
        },
        {
          "internalType": "uint256",
          "name": "addedValue",
          "type": "uint256"
        }
      ],
      "name": "increaseAllowance",
      "outputs": [
        {
          "internalType": "bool",
          "name": "",
          "type": "bool"
        }
      ],
      "stateMutability": "nonpayable",
      "type": "function"
    },
    {
      "inputs": [],
      "name": "name",
      "outputs": [
        {
          "internalType": "string",
          "name": "",
          "type": "string"
        }
      ],
      "stateMutability": "view",
      "type": "function"
    },
    {
      "inputs": [],
      "name": "owner",
      "outputs": [
        {
          "internalType": "address",
          "name": "",
          "type": "address"
        }
      ],
      "stateMutability": "view",
      "type": "function"
    },
    {
      "inputs": [],
      "name": "renounceOwnership",
      "outputs": [],
      "stateMutability": "nonpayable",
      "type": "function"
    },
    {
      "inputs": [],
      "name": "snapshot",
      "outputs": [
        {
          "internalType": "uint256",
          "name": "",
          "type": "uint256"
        }
      ],
      "stateMutability": "nonpayable",
      "type": "function"
    },
    {
      "inputs": [],
      "name": "symbol",
      "outputs": [
        {
          "internalType": "string",
          "name": "",
          "type": "string"
        }
      ],
      "stateMutability": "view",
      "type": "function"
    },
    {
      "inputs": [],
      "name": "totalSupply",
      "outputs": [
        {
          "internalType": "uint256",
          "name": "",
          "type": "uint256"
        }
      ],
      "stateMutability": "view",
      "type": "function"
    },
    {
      "inputs": [
        {
          "internalType": "uint256",
          "name": "snapshotId",
          "type": "uint256"
        }
      ],
      "name": "totalSupplyAt",
      "outputs": [
        {
          "internalType": "uint256",
          "name": "",
          "type": "uint256"
        }
      ],
      "stateMutability": "view",
      "type": "function"
    },
    {
      "inputs": [
        {
          "internalType": "address",
          "name": "to",
          "type": "address"
        },
        {
          "internalType": "uint256",
          "name": "amount",
          "type": "uint256"
        }
      ],
      "name": "transfer",
      "outputs": [
        {
          "internalType": "bool",
          "name": "",
          "type": "bool"
        }
      ],
      "stateMutability": "nonpayable",
      "type": "function"
    },
    {
      "inputs": [
        {
          "internalType": "address",
          "name": "from",
          "type": "address"
        },
        {
          "internalType": "address",
          "name": "to",
          "type": "address"
        },
        {
          "internalType": "uint256",
          "name": "amount",
          "type": "uint256"
        }
      ],
      "name": "transferFrom",
      "outputs": [
        {
          "internalType": "bool",
          "name": "",
          "type": "bool"
        }
      ],
      "stateMutability": "nonpayable",
      "type": "function"
    },
    {
      "inputs": [
        {
          "internalType": "address",
          "name": "newOwner",
          "type": "address"
        }
      ],
      "name": "transferOwnership",
      "outputs": [],
      "stateMutability": "nonpayable",
      "type": "function"
    }
  ],
  "bytecode": "0x60806040523480156200001157600080fd5b506040518060400160405280601c81526020017f446566694b69636b7344617461476f7665726e616e6365546f6b656e000000008152506040518060400160405280600481526020017f4b49434b0000000000000000000000000000000000000000000000000000000081525081600390816200008f919062000882565b508060049081620000a1919062000882565b505050620000c4620000b8620000e660201b60201c565b620000ee60201b60201c565b620000e03369d3c21bcecceda1000000620001b460201b60201c565b62000aee565b600033905090565b6000600960009054906101000a900473ffffffffffffffffffffffffffffffffffffffff16905081600960006101000a81548173ffffffffffffffffffffffffffffffffffffffff021916908373ffffffffffffffffffffffffffffffffffffffff1602179055508173ffffffffffffffffffffffffffffffffffffffff168173ffffffffffffffffffffffffffffffffffffffff167f8be0079c531659141344cd1fd0a4f28419497f9722a3daafe3b4186f6b6457e060405160405180910390a35050565b600073ffffffffffffffffffffffffffffffffffffffff168273ffffffffffffffffffffffffffffffffffffffff160362000226576040517f08c379a00000000000000000000000000000000000000000000000000000000081526004016200021d90620009ca565b60405180910390fd5b6200023a600083836200032160201b60201c565b80600260008282546200024e919062000a1b565b92505081905550806000808473ffffffffffffffffffffffffffffffffffffffff1673ffffffffffffffffffffffffffffffffffffffff168152602001908152602001600020600082825401925050819055508173ffffffffffffffffffffffffffffffffffffffff16600073ffffffffffffffffffffffffffffffffffffffff167fddf252ad1be2c89b69c2b068fc378daa952ba7f163c4a11628f55a4df523b3ef8360405162000301919062000a67565b60405180910390a36200031d600083836200041a60201b60201c565b5050565b620003398383836200041f60201b6200083c1760201c565b600073ffffffffffffffffffffffffffffffffffffffff168373ffffffffffffffffffffffffffffffffffffffff160362000395576200037f826200042460201b60201c565b6200038f6200048760201b60201c565b62000415565b600073ffffffffffffffffffffffffffffffffffffffff168273ffffffffffffffffffffffffffffffffffffffff1603620003f157620003db836200042460201b60201c565b620003eb6200048760201b60201c565b62000414565b62000402836200042460201b60201c565b62000413826200042460201b60201c565b5b5b505050565b505050565b505050565b62000484600560008373ffffffffffffffffffffffffffffffffffffffff1673ffffffffffffffffffffffffffffffffffffffff1681526020019081526020016000206200047883620004ab60201b60201c565b620004f360201b60201c565b50565b620004a960066200049d6200057f60201b60201c565b620004f360201b60201c565b565b60008060008373ffffffffffffffffffffffffffffffffffffffff1673ffffffffffffffffffffffffffffffffffffffff168152602001908152602001600020549050919050565b6000620005056200058960201b60201c565b9050806200051c84600001620005a760201b60201c565b10156200057a5782600001819080600181540180825580915050600190039060005260206000200160009091909190915055826001018290806001815401808255809150506001900390600052602060002001600090919091909150555b505050565b6000600254905090565b6000620005a26008620005fa60201b620008411760201c565b905090565b600080828054905003620005bf5760009050620005f5565b8160018380549050620005d3919062000a84565b81548110620005e757620005e662000abf565b5b906000526020600020015490505b919050565b600081600001549050919050565b600081519050919050565b7f4e487b7100000000000000000000000000000000000000000000000000000000600052604160045260246000fd5b7f4e487b7100000000000000000000000000000000000000000000000000000000600052602260045260246000fd5b600060028204905060018216806200068a57607f821691505b602082108103620006a0576200069f62000642565b5b50919050565b60008190508160005260206000209050919050565b60006020601f8301049050919050565b600082821b905092915050565b6000600883026200070a7fffffffffffffffffffffffffffffffffffffffffffffffffffffffffffffffff82620006cb565b620007168683620006cb565b95508019841693508086168417925050509392505050565b6000819050919050565b6000819050919050565b6000620007636200075d62000757846200072e565b62000738565b6200072e565b9050919050565b6000819050919050565b6200077f8362000742565b620007976200078e826200076a565b848454620006d8565b825550505050565b600090565b620007ae6200079f565b620007bb81848462000774565b505050565b5b81811015620007e357620007d7600082620007a4565b600181019050620007c1565b5050565b601f8211156200083257620007fc81620006a6565b6200080784620006bb565b8101602085101562000817578190505b6200082f6200082685620006bb565b830182620007c0565b50505b505050565b600082821c905092915050565b6000620008576000198460080262000837565b1980831691505092915050565b600062000872838362000844565b9150826002028217905092915050565b6200088d8262000608565b67ffffffffffffffff811115620008a957620008a862000613565b5b620008b5825462000671565b620008c2828285620007e7565b600060209050601f831160018114620008fa5760008415620008e5578287015190505b620008f1858262000864565b86555062000961565b601f1984166200090a86620006a6565b60005b8281101562000934578489015182556001820191506020850194506020810190506200090d565b8683101562000954578489015162000950601f89168262000844565b8355505b6001600288020188555050505b505050505050565b600082825260208201905092915050565b7f45524332303a206d696e7420746f20746865207a65726f206164647265737300600082015250565b6000620009b2601f8362000969565b9150620009bf826200097a565b602082019050919050565b60006020820190508181036000830152620009e581620009a3565b9050919050565b7f4e487b7100000000000000000000000000000000000000000000000000000000600052601160045260246000fd5b600062000a28826200072e565b915062000a35836200072e565b925082820190508082111562000a505762000a4f620009ec565b5b92915050565b62000a61816200072e565b82525050565b600060208201905062000a7e600083018462000a56565b92915050565b600062000a91826200072e565b915062000a9e836200072e565b925082820390508181111562000ab95762000ab8620009ec565b5b92915050565b7f4e487b7100000000000000000000000000000000000000000000000000000000600052603260045260246000fd5b611d718062000afe6000396000f3fe608060405234801561001057600080fd5b506004361061010b5760003560e01c8063715018a6116100a2578063981b24d011610071578063981b24d0146102be578063a457c2d7146102ee578063a9059cbb1461031e578063dd62ed3e1461034e578063f2fde38b1461037e5761010b565b8063715018a61461025a5780638da5cb5b1461026457806395d89b41146102825780639711715a146102a05761010b565b8063313ce567116100de578063313ce567146101ac57806339509351146101ca5780634ee2cd7e146101fa57806370a082311461022a5761010b565b806306fdde0314610110578063095ea7b31461012e57806318160ddd1461015e57806323b872dd1461017c575b600080fd5b61011861039a565b604051610125919061135e565b60405180910390f35b61014860048036038101906101439190611419565b61042c565b6040516101559190611474565b60405180910390f35b61016661044f565b604051610173919061149e565b60405180910390f35b610196600480360381019061019191906114b9565b610459565b6040516101a39190611474565b60405180910390f35b6101b4610488565b6040516101c19190611528565b60405180910390f35b6101e460048036038101906101df9190611419565b610491565b6040516101f19190611474565b60405180910390f35b610214600480360381019061020f9190611419565b6104c8565b604051610221919061149e565b60405180910390f35b610244600480360381019061023f9190611543565b610538565b604051610251919061149e565b60405180910390f35b610262610580565b005b61026c610594565b604051610279919061157f565b60405180910390f35b61028a6105be565b604051610297919061135e565b60405180910390f35b6102a8610650565b6040516102b5919061149e565b60405180910390f35b6102d860048036038101906102d3919061159a565b610667565b6040516102e5919061149e565b60405180910390f35b61030860048036038101906103039190611419565b610698565b6040516103159190611474565b60405180910390f35b61033860048036038101906103339190611419565b61070f565b6040516103459190611474565b60405180910390f35b610368600480360381019061036391906115c7565b610732565b604051610375919061149e565b60405180910390f35b61039860048036038101906103939190611543565b6107b9565b005b6060600380546103a990611636565b80601f01602080910402602001604051908101604052809291908181526020018280546103d590611636565b80156104225780601f106103f757610100808354040283529160200191610422565b820191906000526020600020905b81548152906001019060200180831161040557829003601f168201915b5050505050905090565b60008061043761084f565b9050610444818585610857565b600191505092915050565b6000600254905090565b60008061046461084f565b9050610471858285610a20565b61047c858585610aac565b60019150509392505050565b60006012905090565b60008061049c61084f565b90506104bd8185856104ae8589610732565b6104b89190611696565b610857565b600191505092915050565b600080600061051584600560008873ffffffffffffffffffffffffffffffffffffffff1673ffffffffffffffffffffffffffffffffffffffff168152602001908152602001600020610d22565b915091508161052c5761052785610538565b61052e565b805b9250505092915050565b60008060008373ffffffffffffffffffffffffffffffffffffffff1673ffffffffffffffffffffffffffffffffffffffff168152602001908152602001600020549050919050565b610588610e17565b6105926000610e95565b565b6000600960009054906101000a900473ffffffffffffffffffffffffffffffffffffffff16905090565b6060600480546105cd90611636565b80601f01602080910402602001604051908101604052809291908181526020018280546105f990611636565b80156106465780601f1061061b57610100808354040283529160200191610646565b820191906000526020600020905b81548152906001019060200180831161062957829003601f168201915b5050505050905090565b600061065a610e17565b610662610f5b565b905090565b6000806000610677846006610d22565b915091508161068d5761068861044f565b61068f565b805b92505050919050565b6000806106a361084f565b905060006106b18286610732565b9050838110156106f6576040517f08c379a00000000000000000000000000000000000000000000000000000000081526004016106ed9061173c565b60405180910390fd5b6107038286868403610857565b60019250505092915050565b60008061071a61084f565b9050610727818585610aac565b600191505092915050565b6000600160008473ffffffffffffffffffffffffffffffffffffffff1673ffffffffffffffffffffffffffffffffffffffff16815260200190815260200160002060008373ffffffffffffffffffffffffffffffffffffffff1673ffffffffffffffffffffffffffffffffffffffff16815260200190815260200160002054905092915050565b6107c1610e17565b600073ffffffffffffffffffffffffffffffffffffffff168173ffffffffffffffffffffffffffffffffffffffff1603610830576040517f08c379a0000000000000000000000000000000000000000000000000000000008152600401610827906117ce565b60405180910390fd5b61083981610e95565b50565b505050565b600081600001549050919050565b600033905090565b600073ffffffffffffffffffffffffffffffffffffffff168373ffffffffffffffffffffffffffffffffffffffff16036108c6576040517f08c379a00000000000000000000000000000000000000000000000000000000081526004016108bd90611860565b60405180910390fd5b600073ffffffffffffffffffffffffffffffffffffffff168273ffffffffffffffffffffffffffffffffffffffff1603610935576040517f08c379a000000000000000000000000000000000000000000000000000000000815260040161092c906118f2565b60405180910390fd5b80600160008573ffffffffffffffffffffffffffffffffffffffff1673ffffffffffffffffffffffffffffffffffffffff16815260200190815260200160002060008473ffffffffffffffffffffffffffffffffffffffff1673ffffffffffffffffffffffffffffffffffffffff168152602001908152602001600020819055508173ffffffffffffffffffffffffffffffffffffffff168373ffffffffffffffffffffffffffffffffffffffff167f8c5be1e5ebec7d5bd14f71427d1e84f3dd0314c0f7b2291e5b200ac8c7c3b92583604051610a13919061149e565b60405180910390a3505050565b6000610a2c8484610732565b90507fffffffffffffffffffffffffffffffffffffffffffffffffffffffffffffffff8114610aa65781811015610a98576040517f08c379a0000000000000000000000000000000000000000000000000000000008152600401610a8f9061195e565b60405180910390fd5b610aa58484848403610857565b5b50505050565b600073ffffffffffffffffffffffffffffffffffffffff168373ffffffffffffffffffffffffffffffffffffffff1603610b1b576040517f08c379a0000000000000000000000000000000000000000000000000000000008152600401610b12906119f0565b60405180910390fd5b600073ffffffffffffffffffffffffffffffffffffffff168273ffffffffffffffffffffffffffffffffffffffff1603610b8a576040517f08c379a0000000000000000000000000000000000000000000000000000000008152600401610b8190611a82565b60405180910390fd5b610b95838383610fb1565b60008060008573ffffffffffffffffffffffffffffffffffffffff1673ffffffffffffffffffffffffffffffffffffffff16815260200190815260200160002054905081811015610c1b576040517f08c379a0000000000000000000000000000000000000000000000000000000008152600401610c1290611b14565b60405180910390fd5b8181036000808673ffffffffffffffffffffffffffffffffffffffff1673ffffffffffffffffffffffffffffffffffffffff16815260200190815260200160002081905550816000808573ffffffffffffffffffffffffffffffffffffffff1673ffffffffffffffffffffffffffffffffffffffff168152602001908152602001600020600082825401925050819055508273ffffffffffffffffffffffffffffffffffffffff168473ffffffffffffffffffffffffffffffffffffffff167fddf252ad1be2c89b69c2b068fc378daa952ba7f163c4a11628f55a4df523b3ef84604051610d09919061149e565b60405180910390a3610d1c848484611069565b50505050565b60008060008411610d68576040517f08c379a0000000000000000000000000000000000000000000000000000000008152600401610d5f90611b80565b60405180910390fd5b610d7061106e565b841115610db2576040517f08c379a0000000000000000000000000000000000000000000000000000000008152600401610da990611bec565b60405180910390fd5b6000610dca858560000161107f90919063ffffffff16565b905083600001805490508103610de7576000809250925050610e10565b6001846001018281548110610dff57610dfe611c0c565b5b906000526020600020015492509250505b9250929050565b610e1f61084f565b73ffffffffffffffffffffffffffffffffffffffff16610e3d610594565b73ffffffffffffffffffffffffffffffffffffffff1614610e93576040517f08c379a0000000000000000000000000000000000000000000000000000000008152600401610e8a90611c87565b60405180910390fd5b565b6000600960009054906101000a900473ffffffffffffffffffffffffffffffffffffffff16905081600960006101000a81548173ffffffffffffffffffffffffffffffffffffffff021916908373ffffffffffffffffffffffffffffffffffffffff1602179055508173ffffffffffffffffffffffffffffffffffffffff168173ffffffffffffffffffffffffffffffffffffffff167f8be0079c531659141344cd1fd0a4f28419497f9722a3daafe3b4186f6b6457e060405160405180910390a35050565b6000610f676008611138565b6000610f7161106e565b90507f8030e83b04d87bef53480e26263266d6ca66863aa8506aca6f2559d18aa1cb6781604051610fa2919061149e565b60405180910390a18091505090565b610fbc83838361083c565b600073ffffffffffffffffffffffffffffffffffffffff168373ffffffffffffffffffffffffffffffffffffffff160361100657610ff98261114e565b6110016111a1565b611064565b600073ffffffffffffffffffffffffffffffffffffffff168273ffffffffffffffffffffffffffffffffffffffff1603611050576110438361114e565b61104b6111a1565b611063565b6110598361114e565b6110628261114e565b5b5b505050565b505050565b600061107a6008610841565b905090565b6000808380549050036110955760009050611132565b600080848054905090505b808210156110e95760006110b483836111b5565b9050846110c187836111db565b6000015411156110d3578091506110e3565b6001816110e09190611696565b92505b506110a0565b60008211801561111157508361110b866001856111069190611ca7565b6111db565b60000154145b1561112c576001826111239190611ca7565b92505050611132565b81925050505b92915050565b6001816000016000828254019250508190555050565b61119e600560008373ffffffffffffffffffffffffffffffffffffffff1673ffffffffffffffffffffffffffffffffffffffff16815260200190815260200160002061119983610538565b6111fd565b50565b6111b360066111ae61044f565b6111fd565b565b600060028284186111c69190611d0a565b8284166111d39190611696565b905092915050565b600080836000528260206000200190506111f481611278565b91505092915050565b600061120761106e565b90508061121684600001611282565b10156112735782600001819080600181540180825580915050600190039060005260206000200160009091909190915055826001018290806001815401808255809150506001900390600052602060002001600090919091909150555b505050565b6000819050919050565b60008082805490500361129857600090506112c9565b81600183805490506112aa9190611ca7565b815481106112bb576112ba611c0c565b5b906000526020600020015490505b919050565b600081519050919050565b600082825260208201905092915050565b60005b838110156113085780820151818401526020810190506112ed565b60008484015250505050565b6000601f19601f8301169050919050565b6000611330826112ce565b61133a81856112d9565b935061134a8185602086016112ea565b61135381611314565b840191505092915050565b600060208201905081810360008301526113788184611325565b905092915050565b600080fd5b600073ffffffffffffffffffffffffffffffffffffffff82169050919050565b60006113b082611385565b9050919050565b6113c0816113a5565b81146113cb57600080fd5b50565b6000813590506113dd816113b7565b92915050565b6000819050919050565b6113f6816113e3565b811461140157600080fd5b50565b600081359050611413816113ed565b92915050565b600080604083850312156114305761142f611380565b5b600061143e858286016113ce565b925050602061144f85828601611404565b9150509250929050565b60008115159050919050565b61146e81611459565b82525050565b60006020820190506114896000830184611465565b92915050565b611498816113e3565b82525050565b60006020820190506114b3600083018461148f565b92915050565b6000806000606084860312156114d2576114d1611380565b5b60006114e0868287016113ce565b93505060206114f1868287016113ce565b925050604061150286828701611404565b9150509250925092565b600060ff82169050919050565b6115228161150c565b82525050565b600060208201905061153d6000830184611519565b92915050565b60006020828403121561155957611558611380565b5b6000611567848285016113ce565b91505092915050565b611579816113a5565b82525050565b60006020820190506115946000830184611570565b92915050565b6000602082840312156115b0576115af611380565b5b60006115be84828501611404565b91505092915050565b600080604083850312156115de576115dd611380565b5b60006115ec858286016113ce565b92505060206115fd858286016113ce565b9150509250929050565b7f4e487b7100000000000000000000000000000000000000000000000000000000600052602260045260246000fd5b6000600282049050600182168061164e57607f821691505b60208210810361166157611660611607565b5b50919050565b7f4e487b7100000000000000000000000000000000000000000000000000000000600052601160045260246000fd5b60006116a1826113e3565b91506116ac836113e3565b92508282019050808211156116c4576116c3611667565b5b92915050565b7f45524332303a2064656372656173656420616c6c6f77616e63652062656c6f7760008201527f207a65726f000000000000000000000000000000000000000000000000000000602082015250565b60006117266025836112d9565b9150611731826116ca565b604082019050919050565b6000602082019050818103600083015261175581611719565b9050919050565b7f4f776e61626c653a206e6577206f776e657220697320746865207a65726f206160008201527f6464726573730000000000000000000000000000000000000000000000000000602082015250565b60006117b86026836112d9565b91506117c38261175c565b604082019050919050565b600060208201905081810360008301526117e7816117ab565b9050919050565b7f45524332303a20617070726f76652066726f6d20746865207a65726f2061646460008201527f7265737300000000000000000000000000000000000000000000000000000000602082015250565b600061184a6024836112d9565b9150611855826117ee565b604082019050919050565b600060208201905081810360008301526118798161183d565b9050919050565b7f45524332303a20617070726f766520746f20746865207a65726f20616464726560008201527f7373000000000000000000000000000000000000000000000000000000000000602082015250565b60006118dc6022836112d9565b91506118e782611880565b604082019050919050565b6000602082019050818103600083015261190b816118cf565b9050919050565b7f45524332303a20696e73756666696369656e7420616c6c6f77616e6365000000600082015250565b6000611948601d836112d9565b915061195382611912565b602082019050919050565b600060208201905081810360008301526119778161193b565b9050919050565b7f45524332303a207472616e736665722066726f6d20746865207a65726f20616460008201527f6472657373000000000000000000000000000000000000000000000000000000602082015250565b60006119da6025836112d9565b91506119e58261197e565b604082019050919050565b60006020820190508181036000830152611a09816119cd565b9050919050565b7f45524332303a207472616e7366657220746f20746865207a65726f206164647260008201527f6573730000000000000000000000000000000000000000000000000000000000602082015250565b6000611a6c6023836112d9565b9150611a7782611a10565b604082019050919050565b60006020820190508181036000830152611a9b81611a5f565b9050919050565b7f45524332303a207472616e7366657220616d6f756e742065786365656473206260008201527f616c616e63650000000000000000000000000000000000000000000000000000602082015250565b6000611afe6026836112d9565b9150611b0982611aa2565b604082019050919050565b60006020820190508181036000830152611b2d81611af1565b9050919050565b7f4552433230536e617073686f743a206964206973203000000000000000000000600082015250565b6000611b6a6016836112d9565b9150611b7582611b34565b602082019050919050565b60006020820190508181036000830152611b9981611b5d565b9050919050565b7f4552433230536e617073686f743a206e6f6e6578697374656e74206964000000600082015250565b6000611bd6601d836112d9565b9150611be182611ba0565b602082019050919050565b60006020820190508181036000830152611c0581611bc9565b9050919050565b7f4e487b7100000000000000000000000000000000000000000000000000000000600052603260045260246000fd5b7f4f776e61626c653a2063616c6c6572206973206e6f7420746865206f776e6572600082015250565b6000611c716020836112d9565b9150611c7c82611c3b565b602082019050919050565b60006020820190508181036000830152611ca081611c64565b9050919050565b6000611cb2826113e3565b9150611cbd836113e3565b9250828203905081811115611cd557611cd4611667565b5b92915050565b7f4e487b7100000000000000000000000000000000000000000000000000000000600052601260045260246000fd5b6000611d15826113e3565b9150611d20836113e3565b925082611d3057611d2f611cdb565b5b82820490509291505056fea2646970667358221220559cf4e087770aac7f02757ad6ff024882fe7972e2620ad53013e63458ca2bee64736f6c63430008110033",
  "linkReferences": {},
  "deployedLinkReferences": {}
}